{
  "_format": "hh-sol-artifact-1",
  "contractName": "AIPredictionMarket",
  "sourceName": "contracts/AIPredictionMarket.sol",
  "abi": [
    {
      "inputs": [
        {
          "internalType": "address",
          "name": "_usdc",
          "type": "address"
        },
        {
          "internalType": "address",
          "name": "_initialOwner",
          "type": "address"
        }
      ],
      "stateMutability": "nonpayable",
      "type": "constructor"
    },
    {
      "inputs": [],
      "name": "AlreadyClaimed",
      "type": "error"
    },
    {
      "inputs": [],
      "name": "AlreadyResolved",
      "type": "error"
    },
    {
      "inputs": [],
      "name": "InsufficientStake",
      "type": "error"
    },
    {
      "inputs": [],
      "name": "InvalidPrediction",
      "type": "error"
    },
    {
      "inputs": [],
      "name": "InvalidTargetDate",
      "type": "error"
    },
    {
      "inputs": [],
      "name": "NoWinnings",
      "type": "error"
    },
    {
      "inputs": [
        {
          "internalType": "address",
          "name": "owner",
          "type": "address"
        }
      ],
      "name": "OwnableInvalidOwner",
      "type": "error"
    },
    {
      "inputs": [
        {
          "internalType": "address",
          "name": "account",
          "type": "address"
        }
      ],
      "name": "OwnableUnauthorizedAccount",
      "type": "error"
    },
    {
      "inputs": [],
      "name": "PredictionExpired",
      "type": "error"
    },
    {
      "inputs": [],
      "name": "PredictionNotResolved",
      "type": "error"
    },
    {
      "inputs": [],
      "name": "ReentrancyGuardReentrantCall",
      "type": "error"
    },
    {
      "inputs": [],
      "name": "TransferFailed",
      "type": "error"
    },
    {
      "inputs": [],
      "name": "Unauthorized",
      "type": "error"
    },
    {
      "anonymous": false,
      "inputs": [
        {
          "indexed": true,
          "internalType": "address",
          "name": "oldOracle",
          "type": "address"
        },
        {
          "indexed": true,
          "internalType": "address",
          "name": "newOracle",
          "type": "address"
        }
      ],
      "name": "OracleUpdated",
      "type": "event"
    },
    {
      "anonymous": false,
      "inputs": [
        {
          "indexed": true,
          "internalType": "address",
          "name": "previousOwner",
          "type": "address"
        },
        {
          "indexed": true,
          "internalType": "address",
          "name": "newOwner",
          "type": "address"
        }
      ],
      "name": "OwnershipTransferred",
      "type": "event"
    },
    {
      "anonymous": false,
      "inputs": [
        {
          "indexed": true,
          "internalType": "uint256",
          "name": "predictionId",
          "type": "uint256"
        },
        {
          "indexed": false,
          "internalType": "string",
          "name": "commodity",
          "type": "string"
        },
        {
          "indexed": false,
          "internalType": "uint256",
          "name": "currentPrice",
          "type": "uint256"
        },
        {
          "indexed": false,
          "internalType": "uint256",
          "name": "predictedPrice",
          "type": "uint256"
        },
        {
          "indexed": false,
          "internalType": "uint256",
          "name": "targetDate",
          "type": "uint256"
        },
        {
          "indexed": false,
          "internalType": "uint256",
          "name": "confidence",
          "type": "uint256"
        },
        {
          "indexed": true,
          "internalType": "address",
          "name": "creator",
          "type": "address"
        }
      ],
      "name": "PredictionCreated",
      "type": "event"
    },
    {
      "anonymous": false,
      "inputs": [
        {
          "indexed": true,
          "internalType": "uint256",
          "name": "predictionId",
          "type": "uint256"
        },
        {
          "indexed": false,
          "internalType": "uint256",
          "name": "actualPrice",
          "type": "uint256"
        },
        {
          "indexed": false,
          "internalType": "bool",
          "name": "predictedCorrectly",
          "type": "bool"
        },
        {
          "indexed": false,
          "internalType": "uint256",
          "name": "timestamp",
          "type": "uint256"
        }
      ],
      "name": "PredictionResolved",
      "type": "event"
    },
    {
      "anonymous": false,
      "inputs": [
        {
          "indexed": true,
          "internalType": "uint256",
          "name": "predictionId",
          "type": "uint256"
        },
        {
          "indexed": true,
          "internalType": "address",
          "name": "user",
          "type": "address"
        },
        {
          "indexed": false,
          "internalType": "bool",
          "name": "isYes",
          "type": "bool"
        },
        {
          "indexed": false,
          "internalType": "uint256",
          "name": "amount",
          "type": "uint256"
        }
      ],
      "name": "StakePlaced",
      "type": "event"
    },
    {
      "anonymous": false,
      "inputs": [
        {
          "indexed": true,
          "internalType": "uint256",
          "name": "predictionId",
          "type": "uint256"
        },
        {
          "indexed": true,
          "internalType": "address",
          "name": "user",
          "type": "address"
        },
        {
          "indexed": false,
          "internalType": "uint256",
          "name": "amount",
          "type": "uint256"
        }
      ],
      "name": "WinningsClaimed",
      "type": "event"
    },
    {
      "inputs": [],
      "name": "BASIS_POINTS",
      "outputs": [
        {
          "internalType": "uint256",
          "name": "",
          "type": "uint256"
        }
      ],
      "stateMutability": "view",
      "type": "function"
    },
    {
      "inputs": [],
      "name": "MIN_STAKE",
      "outputs": [
        {
          "internalType": "uint256",
          "name": "",
          "type": "uint256"
        }
      ],
      "stateMutability": "view",
      "type": "function"
    },
    {
      "inputs": [],
      "name": "PLATFORM_FEE",
      "outputs": [
        {
          "internalType": "uint256",
          "name": "",
          "type": "uint256"
        }
      ],
      "stateMutability": "view",
      "type": "function"
    },
    {
      "inputs": [
        {
          "internalType": "uint256",
          "name": "predictionId",
          "type": "uint256"
        },
        {
          "internalType": "address",
          "name": "user",
          "type": "address"
        }
      ],
      "name": "calculatePayout",
      "outputs": [
        {
          "internalType": "uint256",
          "name": "",
          "type": "uint256"
        }
      ],
      "stateMutability": "view",
      "type": "function"
    },
    {
      "inputs": [
        {
          "internalType": "uint256",
          "name": "predictionId",
          "type": "uint256"
        }
      ],
      "name": "claimWinnings",
      "outputs": [],
      "stateMutability": "nonpayable",
      "type": "function"
    },
    {
      "inputs": [
        {
          "internalType": "string",
          "name": "commodity",
          "type": "string"
        },
        {
          "internalType": "uint256",
          "name": "currentPrice",
          "type": "uint256"
        },
        {
          "internalType": "uint256",
          "name": "predictedPrice",
          "type": "uint256"
        },
        {
          "internalType": "uint256",
          "name": "targetDate",
          "type": "uint256"
        },
        {
          "internalType": "uint256",
          "name": "confidence",
          "type": "uint256"
        },
        {
          "internalType": "string",
          "name": "model",
          "type": "string"
        },
        {
          "internalType": "bytes32",
          "name": "ipfsHash",
          "type": "bytes32"
        }
      ],
      "name": "createPrediction",
      "outputs": [
        {
          "internalType": "uint256",
          "name": "",
          "type": "uint256"
        }
      ],
      "stateMutability": "nonpayable",
      "type": "function"
    },
    {
      "inputs": [
        {
          "internalType": "uint256",
          "name": "predictionId",
          "type": "uint256"
        }
      ],
      "name": "getOdds",
      "outputs": [
        {
          "internalType": "uint256",
          "name": "yesOdds",
          "type": "uint256"
        },
        {
          "internalType": "uint256",
          "name": "noOdds",
          "type": "uint256"
        }
      ],
      "stateMutability": "view",
      "type": "function"
    },
    {
      "inputs": [
        {
          "internalType": "uint256",
          "name": "predictionId",
          "type": "uint256"
        },
        {
          "internalType": "address",
          "name": "user",
          "type": "address"
        }
      ],
      "name": "getPosition",
      "outputs": [
        {
          "components": [
            {
              "internalType": "uint256",
              "name": "yesAmount",
              "type": "uint256"
            },
            {
              "internalType": "uint256",
              "name": "noAmount",
              "type": "uint256"
            },
            {
              "internalType": "bool",
              "name": "claimed",
              "type": "bool"
            }
          ],
          "internalType": "struct AIPredictionMarket.UserPosition",
          "name": "",
          "type": "tuple"
        }
      ],
      "stateMutability": "view",
      "type": "function"
    },
    {
      "inputs": [
        {
          "internalType": "uint256",
          "name": "predictionId",
          "type": "uint256"
        }
      ],
      "name": "getPrediction",
      "outputs": [
        {
          "components": [
            {
              "internalType": "string",
              "name": "commodity",
              "type": "string"
            },
            {
              "internalType": "uint256",
              "name": "currentPrice",
              "type": "uint256"
            },
            {
              "internalType": "uint256",
              "name": "predictedPrice",
              "type": "uint256"
            },
            {
              "internalType": "uint256",
              "name": "targetDate",
              "type": "uint256"
            },
            {
              "internalType": "uint256",
              "name": "confidence",
              "type": "uint256"
            },
            {
              "internalType": "string",
              "name": "model",
              "type": "string"
            },
            {
              "internalType": "bytes32",
              "name": "ipfsHash",
              "type": "bytes32"
            },
            {
              "internalType": "uint256",
              "name": "createdAt",
              "type": "uint256"
            },
            {
              "internalType": "bool",
              "name": "resolved",
              "type": "bool"
            },
            {
              "internalType": "uint256",
              "name": "actualPrice",
              "type": "uint256"
            },
            {
              "internalType": "uint256",
              "name": "yesStakes",
              "type": "uint256"
            },
            {
              "internalType": "uint256",
              "name": "noStakes",
              "type": "uint256"
            },
            {
              "internalType": "address",
              "name": "creator",
              "type": "address"
            }
          ],
          "internalType": "struct AIPredictionMarket.Prediction",
          "name": "",
          "type": "tuple"
        }
      ],
      "stateMutability": "view",
      "type": "function"
    },
    {
      "inputs": [],
      "name": "oracleAddress",
      "outputs": [
        {
          "internalType": "address",
          "name": "",
          "type": "address"
        }
      ],
      "stateMutability": "view",
      "type": "function"
    },
    {
      "inputs": [],
      "name": "owner",
      "outputs": [
        {
          "internalType": "address",
          "name": "",
          "type": "address"
        }
      ],
      "stateMutability": "view",
      "type": "function"
    },
    {
      "inputs": [
        {
          "internalType": "uint256",
          "name": "",
          "type": "uint256"
        },
        {
          "internalType": "address",
          "name": "",
          "type": "address"
        }
      ],
      "name": "positions",
      "outputs": [
        {
          "internalType": "uint256",
          "name": "yesAmount",
          "type": "uint256"
        },
        {
          "internalType": "uint256",
          "name": "noAmount",
          "type": "uint256"
        },
        {
          "internalType": "bool",
          "name": "claimed",
          "type": "bool"
        }
      ],
      "stateMutability": "view",
      "type": "function"
    },
    {
      "inputs": [],
      "name": "predictionIdCounter",
      "outputs": [
        {
          "internalType": "uint256",
          "name": "",
          "type": "uint256"
        }
      ],
      "stateMutability": "view",
      "type": "function"
    },
    {
      "inputs": [
        {
          "internalType": "uint256",
          "name": "",
          "type": "uint256"
        }
      ],
      "name": "predictions",
      "outputs": [
        {
          "internalType": "string",
          "name": "commodity",
          "type": "string"
        },
        {
          "internalType": "uint256",
          "name": "currentPrice",
          "type": "uint256"
        },
        {
          "internalType": "uint256",
          "name": "predictedPrice",
          "type": "uint256"
        },
        {
          "internalType": "uint256",
          "name": "targetDate",
          "type": "uint256"
        },
        {
          "internalType": "uint256",
          "name": "confidence",
          "type": "uint256"
        },
        {
          "internalType": "string",
          "name": "model",
          "type": "string"
        },
        {
          "internalType": "bytes32",
          "name": "ipfsHash",
          "type": "bytes32"
        },
        {
          "internalType": "uint256",
          "name": "createdAt",
          "type": "uint256"
        },
        {
          "internalType": "bool",
          "name": "resolved",
          "type": "bool"
        },
        {
          "internalType": "uint256",
          "name": "actualPrice",
          "type": "uint256"
        },
        {
          "internalType": "uint256",
          "name": "yesStakes",
          "type": "uint256"
        },
        {
          "internalType": "uint256",
          "name": "noStakes",
          "type": "uint256"
        },
        {
          "internalType": "address",
          "name": "creator",
          "type": "address"
        }
      ],
      "stateMutability": "view",
      "type": "function"
    },
    {
      "inputs": [],
      "name": "renounceOwnership",
      "outputs": [],
      "stateMutability": "nonpayable",
      "type": "function"
    },
    {
      "inputs": [
        {
          "internalType": "uint256",
          "name": "predictionId",
          "type": "uint256"
        },
        {
          "internalType": "uint256",
          "name": "actualPrice",
          "type": "uint256"
        }
      ],
      "name": "resolvePrediction",
      "outputs": [],
      "stateMutability": "nonpayable",
      "type": "function"
    },
    {
      "inputs": [
        {
          "internalType": "address",
          "name": "newOracle",
          "type": "address"
        }
      ],
      "name": "setOracleAddress",
      "outputs": [],
      "stateMutability": "nonpayable",
      "type": "function"
    },
    {
      "inputs": [
        {
          "internalType": "uint256",
          "name": "predictionId",
          "type": "uint256"
        },
        {
          "internalType": "bool",
          "name": "isYes",
          "type": "bool"
        },
        {
          "internalType": "uint256",
          "name": "amount",
          "type": "uint256"
        }
      ],
      "name": "stake",
      "outputs": [],
      "stateMutability": "nonpayable",
      "type": "function"
    },
    {
      "inputs": [],
      "name": "totalFeesCollected",
      "outputs": [
        {
          "internalType": "uint256",
          "name": "",
          "type": "uint256"
        }
      ],
      "stateMutability": "view",
      "type": "function"
    },
    {
      "inputs": [
        {
          "internalType": "address",
          "name": "newOwner",
          "type": "address"
        }
      ],
      "name": "transferOwnership",
      "outputs": [],
      "stateMutability": "nonpayable",
      "type": "function"
    },
    {
      "inputs": [],
      "name": "usdc",
      "outputs": [
        {
          "internalType": "contract IERC20",
          "name": "",
          "type": "address"
        }
      ],
      "stateMutability": "view",
      "type": "function"
    },
    {
      "inputs": [],
      "name": "withdrawFees",
      "outputs": [],
      "stateMutability": "nonpayable",
      "type": "function"
    }
  ],
  "bytecode": "0x60a03461014957601f6200187438819003918201601f19168301916001600160401b0383118484101761014e57808492604094855283398101031261014957610053602061004c83610164565b9201610164565b60016000556001600160a01b0390811691908215610130576001549060018060a01b0319928484841617600155848260405194167f8be0079c531659141344cd1fd0a4f28419497f9722a3daafe3b4186f6b6457e0600080a3169081156100ee575060805260055416176005556040516116fb9081620001798239608051818181610c6301528181610e7e01528181610fa901526110c80152f35b62461bcd60e51b815260206004820152601460248201527f496e76616c6964205553444320616464726573730000000000000000000000006044820152606490fd5b604051631e4fbdf760e01b815260006004820152602490fd5b600080fd5b634e487b7160e01b600052604160045260246000fd5b51906001600160a01b03821682036101495756fe6080604052600436101561001257600080fd5b60003560e01c80624fbbb01461113d578063126c41661461111357806334fbc9a1146110f75780633e413bee146110b2578063447da8a614610f15578063476343ee14610e195780634c69c00f14610d6b57806360c6d8ae14610d4d578063677bd9ff14610b97578063715018a614610b3a5780638da5cb5b14610b11578063a89ae4ba14610ae8578063b726be7f14610aba578063cb1c2b5c14610a9c578063d29f541d146109fe578063dbb190691461058b578063e1f1c4a71461056e578063e684d7181461050a578063ea4d79a1146104ec578063f2fde38b14610463578063fe83bece146102795763fefac3db1461010d57600080fd5b34610274576040366003190112610274576005546004359060243590336001600160a01b0391821614159081610265575b5061025457816000526003602052604060002060078101541561024257600881019081549160ff8316610230576003820154421061021e57600160029360ff19161790558260098201550154906101f490818302918383041483151715610208577f0da7f8f97ffdc579fc3b09a20d726e3a25b83fdd8b4bc788a3d67389cf723b6492612710606093046101d281836114d4565b83101591826101f4575b505060405191825215156020820152426040820152a2005b6101fe9250611471565b81111538806101dc565b634e487b7160e01b600052601160045260246000fd5b60405163d1c08e0f60e01b8152600490fd5b6040516336ab81e160e11b8152600490fd5b604051631d40b33f60e31b8152600490fd5b6040516282b42960e81b8152600490fd5b9050600154163314153861013e565b600080fd5b3461027457602036600319011261027457600061018060405161029b81611285565b60608152826020820152826040820152826060820152826080820152606060a08201528260c08201528260e0820152826101008201528261012082015282610140820152826101608201520152600435600052600360205260406000206040519061030582611285565b61030e816112c4565b825260018101546020830152600281015460408301526003810154606083015260048101546080830152610344600582016112c4565b60a0830152600681015460c0830152600781015460e083015260ff60088201541615156101008301526009810154610120830152600a810154610140830152600b810154610160830152600c60018060a01b03910154166101808201526040518091602082526104036103c582516101a060208601526101c085019061136a565b602083015160408501526040830151606085015260608301516080850152608083015160a085015260a0830151601f198583030160c086015261136a565b9060c081015160e084015260e0810151610100840152610100810151151561012084015261012081015161014084015261014081015161016084015261016081015161018084015261018060018060a01b03910151166101a08301520390f35b346102745760203660031901126102745761047c6113aa565b61048461142d565b6001600160a01b039081169081156104d357600154826001600160601b0360a01b821617600155167f8be0079c531659141344cd1fd0a4f28419497f9722a3daafe3b4186f6b6457e0600080a3005b604051631e4fbdf760e01b815260006004820152602490fd5b34610274576000366003190112610274576020600254604051908152f35b34610274576040366003190112610274576105236113c0565b600435600052600460205260406000209060018060a01b03166000526020526060604060002080549060ff600260018301549201541690604051928352602083015215156040820152f35b346102745760003660031901126102745760206040516127108152f35b346102745760e03660031901126102745760043567ffffffffffffffff8111610274576105bc9036906004016113d6565b60a43567ffffffffffffffff8111610274576105dc9036906004016113d6565b904260643511156109ec576024351580156109e2575b610242576064608435116102425760025490600019821461020857600182016002556040519261062184611285565b818452602435602085015260443560408501526064356060850152608435608085015260a084015260c43560c08401524260e0840152600061010084015260006101208401526000610140840152600061016084015233610180840152816000526003602052604060002092805180519067ffffffffffffffff82116109055781906106ad875461122f565b601f8111610992575b50602090601f83116001146109265760009261091b575b50508160011b916000199060031b1c19161784555b6020810151600185015560408101516002850155606081015160038501556080810151600485015560a081015193845167ffffffffffffffff81116109055761072e600583015461122f565b95601f87116108be575b602096508690601f831160011461084d57600c93929160009183610842575b50508160011b916000199060031b1c19161760058201555b60c0830151600682015560e0830151600782015560088101610100840151151560ff801983541691161790556101208301516009820155610140830151600a820155610160830151600b820155019061018060018060a01b03910151166001600160601b0360a01b825416179055817fa694b2a819036557bf48013bfcb3924ccc741ee5d16ee105aa1adbb6378d25566108146040519360a0855260a085019061136a565b92602435868201526044356040820152606435606082015260843560808201528033940390a3604051908152f35b015190508880610757565b9060058401600052876000209160005b601f19851681106108a75750918391600193600c9695601f1981161061088e575b505050811b01600582015561076f565b015160001960f88460031b161c1916905588808061087e565b91928960018192868501518155019401920161085d565b600583016000526020600020601f830160051c8101602084106108fe575b601f890160051c820181106108f2575050610738565b600081556001016108dc565b50806108dc565b634e487b7160e01b600052604160045260246000fd5b0151905086806106cd565b9250866000526020600020906000935b601f1984168510610977576001945083601f1981161061095e575b505050811b0184556106e2565b015160001960f88460031b161c19169055868080610951565b81810151835560209485019460019093019290910190610936565b909150866000526020600020601f840160051c8101602085106109db575b90849392915b601f830160051c820181106109cc5750506106b6565b600081558594506001016109b6565b50806109b0565b50604435156105f2565b6040516321f15cfd60e01b8152600490fd5b3461027457604036600319011261027457610a176113c0565b600060408051610a2681611269565b8281528260208201520152600435600052600460205260406000209060018060a01b031660005260205260606040600020604051610a6381611269565b815491828252604060ff600260018401549360208601948552015416920191151582526040519283525160208301525115156040820152f35b34610274576000366003190112610274576020604051620f42408152f35b34610274576040366003190112610274576020610ae0610ad86113c0565b6004356114e1565b604051908152f35b34610274576000366003190112610274576005546040516001600160a01b039091168152602090f35b34610274576000366003190112610274576001546040516001600160a01b039091168152602090f35b3461027457600036600319011261027457610b5361142d565b600180546001600160a01b031981169091556000906001600160a01b03167f8be0079c531659141344cd1fd0a4f28419497f9722a3daafe3b4186f6b6457e08280a3005b346102745760208060031936011261027457600435610bb461147e565b8060005260038252604060002060048352604060002033600052835260ff600860406000209201541615610d3b576002019182549260ff8416610d2957610bfb33846114e1565b938415610d175760019060ff191617905560c8830283810460c80361020857610c2c612710610c35920480956114d4565b93600654611471565b60065560405163a9059cbb60e01b815233600482015260248101849052818160448160006001600160a01b037f0000000000000000000000000000000000000000000000000000000000000000165af1908115610d0b57600091610cde575b5015610ccc577f5380cf6fe903b40c6d5a9e0dfbca2f3a423f0a21520b4d5947ed5169bdba946d906040519384523393a36001600055005b6040516312171d8360e31b8152600490fd5b610cfe9150823d8411610d04575b610cf681836112a2565b810190611459565b84610c94565b503d610cec565b6040513d6000823e3d90fd5b6040516330a748d360e11b8152600490fd5b604051630c8d9eab60e31b8152600490fd5b60405163143cfc7960e21b8152600490fd5b34610274576000366003190112610274576020600654604051908152f35b3461027457602036600319011261027457610d846113aa565b610d8c61142d565b6001600160a01b03908116908115610ddb57600554826001600160601b0360a01b821617600555167f078c3b417dadf69374a59793b829c52001247130433427049317bde56607b1b7600080a3005b60405162461bcd60e51b8152602060048201526016602482015275496e76616c6964206f7261636c65206164647265737360501b6044820152606490fd5b3461027457600036600319011261027457610e3261142d565b610e3a61147e565b6006548015610eda576000600681905560015460405163a9059cbb60e01b81526001600160a01b0391821660048201526024810193909352602091839160449183917f0000000000000000000000000000000000000000000000000000000000000000165af1908115610d0b57600091610ebc575b5015610ccc576001600055005b610ed4915060203d8111610d0457610cf681836112a2565b81610eaf565b60405162461bcd60e51b81526020600482015260136024820152724e6f206665657320746f20776974686472617760681b6044820152606490fd5b346102745760603660031901126102745760043560243590811515918281036102745760443590610f4461147e565b8260005260209060038252604060002060078101541561024257600381015442101561021e5760ff60088201541661023057620f424084106110a0576040516323b872dd60e01b815233600482015230602482015260448101859052838160648160007f00000000000000000000000000000000000000000000000000000000000000006001600160a01b03165af1908115610d0b57600091611083575b5015610ccc578460005260048352604060002033600052835260406000209160001461105d578161101685600a9454611471565b905501611024838254611471565b90555b6040519384528301527fa3879d551ba45a0604aaa4a7c6a8ddb76bfbbc80492db9657cc2b9abbe6d028060403393a36001600055005b6001600b920161106e858254611471565b90550161107c838254611471565b9055611027565b61109a9150843d8611610d0457610cf681836112a2565b87610fe2565b6040516378de4a6960e11b8152600490fd5b34610274576000366003190112610274576040517f00000000000000000000000000000000000000000000000000000000000000006001600160a01b03168152602090f35b3461027457600036600319011261027457602060405160c88152f35b34610274576020366003190112610274576040611131600435611626565b82519182526020820152f35b346102745760203660031901126102745760043560005260036020526040600020611167816112c4565b60018201549060028301549260038101549060048101546005820161118b906112c4565b936006830154946007840154600885015460ff1691600986015493600a87015495600b88015497600160a01b6001900390600c015416986040519c8d9c8d946101a080875286016111db9161136a565b946020015260408d015260608c015260808b015289810360a08b01526112009161136a565b9660c089015260e088015215156101008701526101208601526101408501526101608401526101808301520390f35b90600182811c9216801561125f575b602083101461124957565b634e487b7160e01b600052602260045260246000fd5b91607f169161123e565b6060810190811067ffffffffffffffff82111761090557604052565b6101a0810190811067ffffffffffffffff82111761090557604052565b90601f8019910116810190811067ffffffffffffffff82111761090557604052565b90604051918260008254926112d88461122f565b9081845260019485811690816000146113475750600114611304575b5050611302925003836112a2565b565b9093915060005260209081600020936000915b81831061132f575050611302935082010138806112f4565b85548884018501529485019487945091830191611317565b91505061130294506020925060ff191682840152151560051b82010138806112f4565b919082519283825260005b848110611396575050826000602080949584010152601f8019910116010190565b602081830181015184830182015201611375565b600435906001600160a01b038216820361027457565b602435906001600160a01b038216820361027457565b81601f820112156102745780359067ffffffffffffffff8211610905576040519261140b601f8401601f1916602001856112a2565b8284526020838301011161027457816000926020809301838601378301015290565b6001546001600160a01b0316330361144157565b60405163118cdaa760e01b8152336004820152602490fd5b90816020910312610274575180151581036102745790565b9190820180921161020857565b60026000541461148f576002600055565b604051633ee5aeb560e01b8152600490fd5b8181029291811591840414171561020857565b81156114be570490565b634e487b7160e01b600052601260045260246000fd5b9190820391821161020857565b906000918252600360205260408220906004602052604083209060018060a01b03168352602052604082209160ff60088301541615611620576002820154926101f480850290858204148515171561160c57612710900460098401549061154881876114d4565b82101595866115f5575b505050600b600a8401549301546115698185611471565b9283156115ec579480806115e2575b156115a85750508261158b575b50505090565b6115a093509061159b91546114a1565b6114b4565b388080611585565b90935015806115d5575b6115bc5750505090565b8215611585576115a0935090600161159b9201546114a1565b50600181015415156115b2565b5082541515611578565b94505050505090565b61160192939650611471565b101592388080611552565b634e487b7160e01b83526011600452602483fd5b91505090565b90600091825260036020526040822091600b600a8401549301549261164b8482611471565b9182156116b85761271091828102908082048414901517156116a45783611671916114b4565b9482810292818404149015171561169057509061168d916114b4565b90565b634e487b7160e01b81526011600452602490fd5b634e487b7160e01b82526011600452602482fd5b505050905061138890819056fea26469706673582212207d11ab59e37bf8e29b7cd2ecaa86563781faf0f479866be32245249bd85a64de64736f6c63430008140033",
  "linkReferences": {},
  "deployedLinkReferences": {}
}